:020000040000FA
:08000000803102288731F32F43
:10012E0071082100CB007008CA0008007108210078
:10013E00CF007008CE00080071082100CD007008B5
:10014E00CC000800F10071088031D2208031080007
:10015E00640080010131890BB02800342F00960114
:10016E009701980199019A019B01080062303100B4
:10017E008D008F019101023093009201080025003D
:10018E0090018F019101FF308D008C012E00901097
:10019E0025008E010800F000D4282E000F1ED8284E
:1001AE00D928D428DA28700822009A000800803155
:1001BE00B52080318131BB2180318031BD2080312D
:1001CE008031C62080318131462180310800F00017
:1001DE00640030009E18F428F528EF28F6281E1724
:1001EE0070089A0070309B001E141C08FE28080030
:1001FE0009295330890B012900000130F00200302B
:10020E00F13B092970087104031D0E290F290029DD
:10021E001029080058302000DA005A08DD0057086F
:10022E00CF005608CE005D30DA005A08D0000030FC
:10023E0082311322813120004F08DC004E08DB0092
:10024E00282908007C08803A2000A0008030200277
:10025E00031D332901307B0203183629372944291F
:10026E007B092000A0007C09A100A00A0319A10AA5
:10027E002008FB002108FC0045294529080008300C
:10028E0022009F0090309D0024309E0019309B006C
:10029E009C010030F0000030F10080319D20813152
:1002AE000030F0000030F1008031A32081310030A9
:1002BE00F0000030F1008031972081312000EF01F5
:1002CE000800F7007708F2007208F6007329013073
:1002DE00F2007208F7077329770886008701010874
:1002EE00031D7A297B296E297C297608F2000030BD
:1002FE00F300F209F309F20A0319F30A7708F4007E
:10030E000030F50072087407F0007308753DF100B7
:10031E00902908002000A300A101A201AA2920080B
:10032E00FB00FC017B08F2007C08F3007A08FD005C
:10033E007D08F4008231C422813101302000A107F2
:10034E000030A23DAA2921082307FB007B08860066
:10035E0087010108FC007C08A0002008031DB829B5
:10036E00B9299629BA29080020009601970198010B
:10037E00F8309100FF309200BE309300F5303E0011
:10038E00CE00FE30C300C830B800E5010130C40015
:10039E002030B900CF01BA01C501D001FF30BB003A
:1003AE00FF30C600FF30D1001030A00011303D00EC
:1003BE00CB0013309C0010303E00A6000800F10068
:1003CE00E82930009E18EC29ED29E8291E1771083E
:1003DE009A0070309B009D0170089C002000031055
:1003EE008B1FFA29FB29FC2903148B1330001E15D1
:1003FE0055309F00AA309F009E14052A9E18082A89
:10040E00092A052A1E112000031C0E2A0F2A122A61
:10041E008B17122A122A08002000D3004F08D5008D
:10042E004E08D4002100A001A101332A543020002F
:10043E00D1005108C2005008D2005208C300530820
:10044E00843181248231200042082100A00720003F
:10045E0043082100A13D332A20005408840055088A
:10046E0085001200031D3C2A3D2A1D2A3E2A21002A
:10047E0021082000CF00210020082000CE00472AAE
:10048E000800200016144B2A7308F1007208F000C1
:10049E008031FF208231532A200016155030F00093
:1004AE000030F1008031FF2082315D2A20001610CD
:1004BE00602A0730F4007D30890B632AF40B632A1F
:1004CE000000692A200016116C2AC830F000003096
:1004DE00F1008031FF208231742A200096141130F1
:1004EE00F4003A30890B792AF40B792A00327F2AEC
:1004FE0020009610832A832A080020009614872A4B
:10050E007308F1007208F0008031FF2082318F2ACB
:10051E0020001615922A1A30F400F830890B952A0D
:10052E00F40B952A00329B2A200096109E2A073043
:10053E00F4007D30890BA12AF40BA12A0000A72A12
:10054E0020001611AA2A4130F400EE30890BAD2A94
:10055E00F40BAD2A0032B32A20001614B62A11303D
:10056E00F4003A30890BB92AF40BB92A0032BF2AAB
:10057E0020001610C32AC32A080074080319C82ABB
:10058E00C92ACF2A7408031DCD2ACE2AD42ACF2AEF
:10059E0072088031A9208231072B7408033E860031
:1005AE008701160001040319DD2ADE2AFC2A7408CD
:1005BE00033E86008701403FF500413FF600740A76
:1005CE0086008701403FF700413FF8007808803AE7
:1005DE00F9007608803A7902031DF72A750877022A
:1005EE000318FA2AFB2A072BFC2A740A86008701B5
:1005FE000130810741310318810A072B072B072B86
:10060E0008002000AC002100261C0E2B0F2B192BEE
:10061E0020002C08A7002708FA0024088131912118
:10062E008331192B2000A61B1D2B1E2B232B2608D6
:10063E00AB002508AA00252BAA01AB01A801A90130
:10064E003A2B2030F2000030F30020002C08A700D7
:10065E002708F4008231C422833101302000A8071C
:10066E000030A93D3A2B2908803AA7002B08803A82
:10067E002702031D442B2A082802031C472B482B54
:10068E00282B210026184C2B4D2B562B20002C08E6
:10069E00A7002708FA002408813191218331200018
:1006AE00240881316821833120002A087007A400B4
:1006BE002B08713DA500632B0800FA01F71F682B6C
:1006CE00692B762BF409F509F609F709F40A0319D3
:1006DE00F50A0319F60A0319F70AFA01FA0AF31FC3
:1006EE00792B7A2B862BF009F109F209F309F00A1E
:1006FE000319F10A0319F20A0319F30A862B730878
:10070E0072047104700403198D2B8E2BCD2BF901FD
:10071E00F90A9D2B0130F035F10DF20DF30D890B19
:10072E00922B0130F8007808F9079D2BF31FA02BB0
:10073E00A12B912BA32BA32B73087702031DB12B97
:10074E0072087602031DB12B71087502031DB12BC1
:10075E0070087402031CB42BB52BBE2B7008F40268
:10076E007108F53B7208F63B7308F73BBE2B013060
:10077E00F336F20CF10CF00C890BBF2B0130F902A1
:10078E00031DCA2BCB2BA32BCD2BCD2B7A080319F4
:10079E00D12BD22BDE2BF409F509F609F709F40A51
:1007AE000319F50A0319F60A0319F70ADE2B77085F
:1007BE00F3007608F2007508F1007408F000E72BDC
:1007CE0008002000A101F31FED2BEE2BFB2BF009EF
:1007DE00F109F209F309F00A0319F10A0319F20AF1
:1007EE000319F30AA101A10AF71FFE2BFF2B0F2CF1
:1007FE00F409F509F609F709F40A0319F50A0319BC
:10080E00F60A0319F70A0130F8007808A1060F2C32
:10081E000030A5000030A4000030A3000030A2007C
:10082E00730872047104700403191E2C1F2C662C9D
:10083E00A001A00A2E2C0130F035F10DF20DF30DB2
:10084E00890B232C0130F8007808A0072E2CF31FFB
:10085E00312C322C222C342C342C0130A235A30D09
:10086E00A40DA50D890B352C73087702031D492C99
:10087E0072087602031D492C71087502031D492C5E
:10088E0070087402031C4C2C4D2C572C7008F4026B
:10089E007108F53B7208F63B7308F73B2214572C90
:1008AE000130F336F20CF10CF00C890B582C0130A0
:1008BE00A002031D632C642C342C662C662C21089C
:1008CE0003196A2C6B2C772CA209A309A409A5097C
:1008DE00A20A0319A30A0319A40A0319A50A772C5D
:1008EE002508F3002408F2002308F1002208F00086
:1008FE00802C08002000CD00420886008701403F72
:10090E00C400413FC500440884004508850012001C
:10091E00253A031D932C942C302D42088600870116
:10092E000130810741310318810A2100A201A30180
:10093E00A601A701FF30A400FF30A5002000420849
:10094E0086008701403FC400413FC5004408840033
:10095E00450885001200643A0319B62CB72CC92C31
:10096E00420886008701403FC400413FC50044084D
:10097E008400450885001200693A031DC72CC82C57
:10098E00F92CC92C420886008701013081074131BC
:10099E000318810A43088600870101088400850137
:1009AE0002308107003FC400013FC5004408C90062
:1009BE004508CA00890D893B8909CB00CC004C083B
:1009CE00B0004B08AF004A08AE004908AD004D0814
:1009DE0085315825843120002E08C3002D08C20011
:1009EE00572D572D420886008701403FC400413FD6
:1009FE00C50044088400450885001200253A031DF1
:100A0E00092D0A2D242D4208860087010130810709
:100A1E0041310318810A2530F2000030F3004D08F1
:100A2E00C4004408F4008231C42284310130200015
:100A3E00C2000030C300572D572D42088600870193
:100A4E000130810741310318810AC201C301572DBC
:100A5E00572D420886008701403FC400413FC50024
:100A6E0044088400450885000008C600C7014608F2
:100A7E00F2004708F3004D08C8004808F400823120
:100A8E00C42284312000420886008701013081078C
:100A9E0041310318810A0130C2000030C300572DC6
:100AAE0008002000B7003008BF002F08BE002E0837
:100ABE00BD002D08BC00BF1B652D672D0130682DB4
:100ACE000030B100B2013108BA003208BB003A085A
:100ADE003B040319732D742D7F2DBC09BD09BE096E
:100AEE00BF09BC0A0319BD0A0319BE0A0319BF0ABE
:100AFE002100A51B832D842D882DFD30A605FF30EA
:100B0E00A7052508803A2000B10080303102031D70
:100B1E00932D0130210024020318962D972D9D2D23
:100B2E0001302000B5000030B600A52D21002508AB
:100B3E002000B600210024082000B5002100230863
:100B4E002000B900210022082000B8003A083B041A
:100B5E00031DB22DB32DB92D2100261DB72DB82D95
:100B6E00BE2DB92DFF302000B807FF30B93D1F3024
:100B7E002000C0000030C1004008A83E860087015A
:100B8E008101172EFF302000C007FF30C13D00301D
:100B9E00F3000030F2000030F1000A30F0003F08A0
:100BAE00F7003E08F6003D08F5003C08F4008331DE
:100BBE00642385317108FC007008FB008131292106
:100BCE0085317B08303E2000B1004008A83E8600EB
:100BDE00870131088100FF30B507FF30B63DFF3089
:100BEE00B807FF30B93D0030F3000030F20000309E
:100BFE00F1000A30F0003F08F7003E08F6003D080D
:100C0E00F5003C08F4008331E82385317308200099
:100C1E00BF007208BE007108BD007008BC00172E20
:100C2E004108803AB10080303102031D202E013080
:100C3E004002031C232E242E502E20003F083E047B
:100C4E003D043C04031D2C2E2D2EC92D3608803A52
:100C5E00B10080303102031D362E013035020318EB
:100C6E00392E3A2EC92D20003908803AB100803035
:100C7E003102031D442E01303802031C472E482E2C
:100C8E00502E2100A6184C2E4D2EC92D502E502E12
:100C9E00502E20003A083B04031D562E572E5D2E73
:100CAE002100261D5B2E5C2E7B2E5D2EFF3020003C
:100CBE00C007FF30C13D3A083B04031D672E682E66
:100CCE006D2E2B30B3000030B400722E2D30B300D9
:100CDE000030B400722E3308B1004008A83E8600E2
:100CEE008701310881007B2E20004008A83EB1000C
:100CFE003108A4003908A6003808A500370883314A
:100D0E000823853120002508AE002408AD008F2E63
:100D1E0008008031DE208631E5302000DE005E08DE
:100D2E00EE006E088031EE2086312000DE00DF01FD
:100D3E005E082100C80020005F082100C9002000C5
:100D4E00E801E901E001E101EA01EB01E201E30161
:100D5E00EC01ED01E401E501E601E70103102000DD
:100D6E000D1C03140030093DDE00DF015E08EC00AF
:100D7E005F08ED0065086D06031DC72E64086C063E
:100D8E000319CA2ECB2E072F6C036D04031DD02E14
:100D9E00D12E012F2100480A031DD92E490A031D09
:100DAE00D92EDA2EE52E2830F2000030F3008231F3
:100DBE00482286312100C801C901012F4803490488
:100DCE00031DEA2EEB2E012F2830F2000030F30027
:100DDE008231842286312100C801C90148082000D1
:100DEE00DE005E08F0006E088131E6218631012FAB
:100DFE00012F012F20006D08E5006C08E400B52ED0
:100E0E0003108C1E03140030093DDE00DF015E0866
:100E1E00E8005F08E90003100C1E03140030093DC2
:100E2E00DE00DF015E08EA005F08EB00610869067C
:100E3E00031D232F600868060319262F272F6C2FFA
:100E4E0068036904031D2C2F2D2F6C2F21004908D8
:100E5E00803A2000DE0080305E02031D392F043000
:100E6E002100480203183C2F3D2F6C2F2100480A09
:100E7E00031D452F490A031D452F462F542F0230BF
:100E8E00C8070030C93D48082000DE005E08F000AB
:100E9E006E088131E6218631632F01302100C807AB
:100EAE000030C93D48082000DE005E08F0006E08E4
:100EBE008131E6218631632F7830F2000030F30065
:100ECE008231482286316C2F6C2F200063086B060E
:100EDE00031D732F62086A060319762F772FAE2F24
:100EEE006A036B04031D7C2F7D2FAE2F2100C91BBF
:100EFE00812F822FAE2F48034904031D872F882F81
:100F0E00962FFE30C807FF30C93D48082000DE008E
:100F1E005E08F0006E088131E6218631A52FFF3084
:100F2E002100C807FF30C93D48082000DE005E08DA
:100F3E00F0006E088131E6218631A52F7830F2005F
:100F4E000030F300823184228631AE2FAE2F200086
:100F5E006908E1006808E0006B08E3006A08E20037
:100F6E0011302000DE003A30890BBB2FDE0BBB2F79
:100F7E00000032302000E6070030E73D6708803A77
:100F8E00DE0083305E02031DCE2FE8306602031CA6
:100F9E00D12FD22FB52E00302000D6008830D700AA
:100FAE006D08D9006C08D8008131112186310F30BF
:100FBE002000D6008830D700210049082000D90033
:100FCE00210048082000D800813111218631B52E2C
:100FDE00B52EB52E803102282000EF01A0308400FE
:100FEE000030850028308031AF20873120008631D7
:100FFE00902E6E34653475347434723461346C34BE
:10100E0020342534643420340A3420340D34003432
:10101E0047346534613472342034253464342034DA
:08102E000A3420340D340034B3
:020000040001F9
:0A000E00EC3FFF3F9F3FFF1FFF3F45
:00000001FF
